:100000000C942A000C9447000C9447000C94470071
:100010000C9447000C9447000C9447000C94470044
:100020000C9447000C9447000C9447000C94661302
:100030000C9447000C9447000C9447000C94470024
:100040000C9447000C9447000C9447000C94470014
:100050000C94470011241FBECFE5D8E0DEBFCDBF12
:1000600010E0A0E6B0E0EAEEF9E202C005900D92E1
:10007000A239B107D9F710E0A2E9B0E001C01D92A2
:10008000A839B107E1F70E9434130C94F3140C94CF
:100090000000EF92FF920F931F937B018C0120E0F1
:1000A00030E040E05FE40E94490388238CF0C801FF
:1000B000B70120E030E040E05FE40E94C1010E940F
:1000C000A9039B01AC01205030404040504806C07D
:1000D000C801B7010E94A9039B01AC01B901CA0183
:1000E0001F910F91FF90EF900895A0E0B0E0EBE733
:1000F000F0E00C94BC14DC012B01FA019C919230CD
:1001000008F439C1EB018881823008F433C194309E
:1001100069F4843009F02FC111969C91119789815F
:10012000981709F428C1A8E6B0E025C1843009F485
:1001300021C18230A9F4923009F01DC19A01AD01AC
:1001400088E0EA010990AE01E90109929E0181501F
:10015000C1F7E201898111969C918923818308C1AD
:10016000923009F407C112962D903C901397EB0141
:100170008A819B811496AD90BD90CD90DC901797AD
:10018000EC80FD800E811F819101281B390BB90184
:1001900037FF04C066277727621B730B6032710537
:1001A0000CF061C0121613066CF537014801062EDB
:1001B00004C096948794779467940A94D2F721E0C8
:1001C00030E040E050E004C0220F331F441F551FB1
:1001D0006A95D2F721503040404050402E213F21B7
:1001E00040235123211531054105510521F021E01E
:1001F00030E040E050E079018A01E628F72808293C
:1002000019293CC0232BD1F1260E371E350146019A
:10021000062E04C096948794779467940A94D2F734
:1002200021E030E040E050E004C0220F331F441FC3
:10023000551F6A95D2F721503040404050402A2146
:100240003B214C215D21211531054105510521F04E
:1002500021E030E040E050E059016A01A628B728CB
:10026000C828D9280BC0821593052CF01C01AA249C
:10027000BB24650103C0EE24FF24870111969C91E5
:10028000D20111968C91981709F445C0992339F041
:10029000A80197012A193B094C095D0906C0A6016E
:1002A00095012E193F09400B510B57FD08C01182D3
:1002B0003382228224833583468357831DC081E0A5
:1002C00081833382228288279927DC01821B930B4A
:1002D000A40BB50B84839583A683B7830DC0220F2F
:1002E000331F441F551F24833583468357838281E0
:1002F000938101979383828324813581468157813D
:10030000DA01C9010197A109B1098F5F9F4FAF4F72
:10031000BF4328F30BC0918333822282EA0CFB1C7B
:100320000C1D1D1DE482F5820683178383E0808304
:10033000248135814681578157FF1AC0C901AA27F8
:1003400097FDA095BA2F81709070A070B0705695EF
:10035000479537952795822B932BA42BB52B848318
:100360009583A683B7838281938101969383828349
:10037000DF0101C0D201CD01CDB7DEB7E2E10C94BF
:10038000D814A0E2B0E0E7ECF1E00C94C814698363
:100390007A838B839C832D833E834F835887E9E048
:1003A000EE2EF12CEC0EFD1ECE010196B7010E943F
:1003B000D2048E010F5E1F4FCE010596B8010E9438
:1003C000D2048A8991E089278A8BC701B801AE01DE
:1003D000475E5F4F0E9475000E94FD03A096E6E015
:1003E0000C94E414A0E2B0E0E8EFF1E00C94C8143F
:1003F00069837A838B839C832D833E834F835887C5
:10040000F9E0EF2EF12CEC0EFD1ECE010196B701A6
:100410000E94D2048E010F5E1F4FCE010596B801D7
:100420000E94D204C701B801AE01475E5F4F0E942F
:1004300075000E94FD03A096E6E00C94E414A0E28F
:10044000B0E0E5E2F2E00C94BC1469837A838B831C
:100450009C832D833E834F835887CE010196BE0136
:10046000675F7F4F0E94D204CE010596BE016F5E8A
:100470007F4F0E94D2049985923088F0898982301A
:10048000C8F0943019F4823051F404C0843029F457
:10049000923081F488E690E0C6C0923049F420E0C2
:1004A0009A858A89981321E02A87CE010996BBC0D4
:1004B000823049F420E09A858A89981321E02A8BBA
:1004C000CE014196B0C02D843E844F8458886D88FB
:1004D0007E888F88988CEE24FF248701AA24BB2471
:1004E000650140E050E060E070E0E0E0F0E0C10174
:1004F00081709070892BE9F0E60CF71C081D191D1E
:100500009A01AB012A0D3B1D4C1D5D1D80E090E062
:10051000A0E0B0E0E614F7040805190520F481E036
:1005200090E0A0E0B0E0BA01A901480F591F6A1F8E
:100530007B1FAA0CBB1CCC1CDD1C97FE08C081E0F5
:1005400090E0A0E0B0E0A82AB92ACA2ADB2A3196B6
:10055000E032F10549F0660C771C881C991C569412
:10056000479437942794C3CFFA85EA892B893C892D
:100570008B859C85280F391F2E5F3F4F17C0CA01FE
:1005800081709070892B61F016950795F794E79428
:1005900080E090E0A0E0B0E8E82AF92A0A2B1B2BC3
:1005A00076956795579547952F5F3F4F77FDE7CF36
:1005B0000CC0440F551F661F771F17FD4160EE0CDE
:1005C000FF1C001F111F21503040403090E05907A0
:1005D00090E0690790E4790760F32B8F3C8FDB0193
:1005E000CA018F779070A070B07080349105A1051A
:1005F000B10561F447FD0AC0E114F10401051105DC
:1006000029F0405C5F4F6F4F7F4F40781A8EFE1786
:1006100011F081E08A8F4D8F5E8F6F8F78A383E01A
:10062000898FCE0149960E94FD03A096E2E10C94C9
:10063000D814A8E1B0E0EFE1F3E00C94C8146983AA
:100640007A838B839C832D833E834F83588789E0F5
:10065000E82EF12CEC0EFD1ECE010196B7010E9492
:10066000D2048E010F5E1F4FCE010596B8010E9485
:10067000D2048985823040F08989823028F0C70110
:10068000B8010E944A0501C08FEF6896E6E00C941D
:10069000E414A8E1B0E0EFE4F3E00C94C81469833B
:1006A0007A838B839C832D833E834F83588789E095
:1006B000E82EF12CEC0EFD1ECE010196B7010E9432
:1006C000D2048E010F5E1F4FCE010596B8010E9425
:1006D000D2048985823040F08989823028F0C701B0
:1006E000B8010E944A0501C08FEF6896E6E00C94BD
:1006F000E414A8E1B0E0EFE7F3E00C94C8146983D8
:100700007A838B839C832D833E834F83588789E034
:10071000E82EF12CEC0EFD1ECE010196B7010E94D1
:10072000D2048E010F5E1F4FCE010596B8010E94C4
:10073000D2048985823040F08989823028F0C7014F
:10074000B8010E944A0501C081E06896E6E00C9479
:10075000E414ACE0B0E0EFEAF3E00C94CC1469836D
:100760007A838B839C83CE010196BE016B5F7F4FA2
:100770000E94D2048D81823061F1823050F1843048
:1007800021F48E81882351F12EC02F81388537FDC9
:1007900020C06E812F3131051CF06623F9F023C093
:1007A0008EE190E0821B930B29853A854B855C8511
:1007B00004C056954795379527958A95D2F76623B5
:1007C000B1F050954095309521953F4F4F4F5F4F79
:1007D0000EC020E030E040E050E009C02FEF3FEFD6
:1007E0004FEF5FE704C020E030E040E050E8B9019F
:1007F000CA012C96E2E00C94E814DF92EF92FF928B
:100800000F931F93FC01E480F58006811781D1804E
:100810008081823048F480E090E0A0E1B0E0E82AF6
:10082000F92A0A2B1B2BA5C0843009F49FC0823003
:1008300021F4EE24FF24870105C0E114F104010531
:10084000110519F4E0E0F0E096C0628173819FEF3A
:10085000623879070CF05BC022E83FEF261B370BAC
:100860002A3131052CF020E030E040E050E02AC091
:10087000B801A701022E04C0769567955795479554
:100880000A94D2F781E090E0A0E0B0E004C0880FC5
:10089000991FAA1FBB1F2A95D2F70197A109B10979
:1008A0008E219F21A023B1230097A105B10521F03E
:1008B00081E090E0A0E0B0E09A01AB01282B392B59
:1008C0004A2B5B2BDA01C9018F779070A070B07052
:1008D00080349105A105B10539F427FF09C0205CDA
:1008E0003F4F4F4F5F4F04C0215C3F4F4F4F5F4F13
:1008F000E0E0F0E02030A0E03A07A0E04A07A0E402
:100900005A0710F0E1E0F0E079018A0127C0603871
:10091000710564F5FB01E158FF4FD801C7018F77DE
:100920009070A070B07080349105A105B10539F4C4
:10093000E7FE0DC080E490E0A0E0B0E004C08FE3EB
:1009400090E0A0E0B0E0E80EF91E0A1F1B1F17FFA1
:1009500005C016950795F794E794319687E01695AC
:100960000795F794E7948A95D1F705C0EE24FF2404
:100970008701EFEFF0E06E2F679566276795902F60
:100980009F77D794DD24D7948E2F8695492F462BB9
:10099000582F5D29B701CA011F910F91FF90EF9069
:1009A000DF900895FC01DB01408151812281622F9B
:1009B0006F7770E0221F2227221F9381892F880FD3
:1009C000822B282F30E0991F9927991F11969C930D
:1009D000119721153105A9F54115510561057105DD
:1009E00011F482E037C082E89FEF13969C938E93B8
:1009F00012979A01AB0167E0220F331F441F551F66
:100A00006A95D1F783E08C930DC0220F331F441FEA
:100A1000551F12968D919C911397019713969C9355
:100A20008E931297203080E0380780E0480780E4FA
:100A3000580758F314962D933D934D935C93179755
:100A400008952F3F310579F4411551056105710570
:100A500019F484E08C93089564FF03C081E08C93C3
:100A600012C01C9210C02F57304013963C932E9307
:100A7000129783E08C9387E0440F551F661F771F02
:100A80008A95D1F7706414964D935D936D937C9322
:100A9000179708951F93DC01FB019C91923008F495
:100AA00047C08081823008F443C0943051F41196DD
:100AB0001C91843099F58181682F70E0611B710968
:100AC0003FC0843021F0923031F48230B9F181811D
:100AD000882389F12DC011961C9111978230F1F075
:100AE00081811817D9F412962D913C911397828128
:100AF00093818217930794F028173907BCF0149656
:100B00008D919D910D90BC91A02D248135814681C0
:100B10005781281739074A075B0718F4112341F05A
:100B20000AC082179307A407B50740F4112319F0F0
:100B300061E070E005C06FEF7FEF02C060E070E041
:100B4000CB011F910895DF93CF93CDB7DEB72897E0
:100B50000FB6F894DEBF0FBECDBF89836A834B8387
:100B60008A81883008F0F6C08B81882309F077C02D
:100B70008981282F30E038872F838F8198858130B5
:100B8000910559F12F813885223031052CF48F8160
:100B90009885009769F060C02F8138852230310533
:100BA00089F18F8198858330910509F440C054C044
:100BB000AAE3B0E0EAE3F0E08081482F8A81282FA1
:100BC00030E081E090E0022E02C0880F991F0A9465
:100BD000E2F7809584238C93BBC0A7E3B0E0E7E302
:100BE000F0E08081482F8A81282F30E081E090E07A
:100BF000022E02C0880F991F0A94E2F78095842381
:100C00008C93A6C0A4E3B0E0E4E3F0E08081482F39
:100C10008A81282F30E081E090E0022E02C0880F08
:100C2000991F0A94E2F7809584238C9391C0A1E3E5
:100C3000B0E0E1E3F0E08081482F8A81282F30E0A6
:100C400081E090E0022E02C0880F991F0A94E2F71B
:100C5000809584238C937CC091E09E837DC08B81A2
:100C6000813009F072C08981282F30E03D832C83C8
:100C70008C819D818130910549F12C813D8122300B
:100C800031052CF48C819D81009761F05BC02C8133
:100C90003D812230310571F18C819D818330910538
:100CA000E9F150C0AAE3B0E0EAE3F0E08081482F28
:100CB0008A81282F30E081E090E0022E02C0880F68
:100CC000991F0A94E2F7842B8C9342C0A7E3B0E00B
:100CD000E7E3F0E08081482F8A81282F30E081E02F
:100CE00090E0022E02C0880F991F0A94E2F7842B2D
:100CF0008C932EC0A4E3B0E0E4E3F0E08081482FC1
:100D00008A81282F30E081E090E0022E02C0880F17
:100D1000991F0A94E2F7842B8C931AC0A1E3B0E0E8
:100D2000E1E3F0E08081482F8A81282F30E081E0E4
:100D300090E0022E02C0880F991F0A94E2F7842BDC
:100D40008C9306C091E09E8307C023E02E8304C0ED
:100D50001E8202C032E03E838E8128960FB6F89440
:100D6000DEBF0FBECDBFCF91DF910895DF93CF934C
:100D7000CDB7DEB728970FB6F894DEBF0FBECDBF54
:100D800089836A834B838A81883008F0F6C08B811F
:100D9000882309F077C08981282F30E038872F8396
:100DA0008F8198858130910559F12F8138852230C6
:100DB00031052CF48F819885009769F060C02F81F0
:100DC00038852230310589F18F81988583309105EE
:100DD00009F440C054C0ABE3B0E0EBE3F0E0808145
:100DE000482F8A81282F30E081E090E0022E02C057
:100DF000880F991F0A94E2F7809584238C93BBC0D7
:100E0000A8E3B0E0E8E3F0E08081482F8A81282F52
:100E100030E081E090E0022E02C0880F991F0A9412
:100E2000E2F7809584238C93A6C0A5E3B0E0E5E3C8
:100E3000F0E08081482F8A81282F30E081E090E027
:100E4000022E02C0880F991F0A94E2F7809584232E
:100E50008C9391C0A2E3B0E0E2E3F0E08081482F00
:100E60008A81282F30E081E090E0022E02C0880FB6
:100E7000991F0A94E2F7809584238C937CC091E0BB
:100E80009E837DC08B81813009F072C08981282FBB
:100E900030E03D832C838C819D818130910549F127
:100EA0002C813D81223031052CF48C819D8100976D
:100EB00061F05BC02C813D812230310571F18C8164
:100EC0009D8183309105E9F150C0ABE3B0E0EBE3E5
:100ED000F0E08081482F8A81282F30E081E090E087
:100EE000022E02C0880F991F0A94E2F7842B8C937C
:100EF00042C0A8E3B0E0E8E3F0E08081482F8A81B7
:100F0000282F30E081E090E0022E02C0880F991F68
:100F10000A94E2F7842B8C932EC0A5E3B0E0E5E3BE
:100F2000F0E08081482F8A81282F30E081E090E036
:100F3000022E02C0880F991F0A94E2F7842B8C932B
:100F40001AC0A2E3B0E0E2E3F0E08081482F8A819A
:100F5000282F30E081E090E0022E02C0880F991F18
:100F60000A94E2F7842B8C9306C091E09E8307C01D
:100F700023E02E8304C01E8202C032E03E838E81B5
:100F800028960FB6F894DEBF0FBECDBFCF91DF918C
:100F90000895DF93CF93CDB7DEB727970FB6F894B8
:100FA000DEBF0FBECDBF89836A835C834B838A819A
:100FB000883008F076C08981282F30E03F832E8367
:100FC0004E815F814130510559F18E819F81823080
:100FD000910534F42E813F812115310569F05CC003
:100FE0004E815F814230510579F18E819F8183303E
:100FF000910509F43DC050C0E9E3F0E08081282F5D
:1010000030E08A81882F90E0A90102C0559547956C
:101010008A95E2F7CA018170EB81FC8180833FC031
:10102000E6E3F0E08081282F30E08A81882F90E08D
:10103000A90102C0559547958A95E2F7CA018170CA
:10104000EB81FC8180832BC0E3E3F0E08081282FDB
:1010500030E08A81882F90E0A90102C0559547951C
:101060008A95E2F7CA018170EB81FC81808317C009
:10107000E0E3F0E08081282F30E08A81882F90E043
:10108000A90102C0559547958A95E2F7CA0181707A
:10109000EB81FC81808303C051E05D8304C01D822D
:1010A00002C082E08D838D8127960FB6F894DEBF53
:1010B0000FBECDBFCF91DF910895DF93CF9300D0C6
:1010C00000D00F92CDB7DEB789836A838981282F3C
:1010D00030E03D832C838C819D8181309105D1F05E
:1010E0002C813D81223031052CF48C819D8100972B
:1010F00061F01FC02C813D812230310581F08C814F
:101100009D818330910581F014C0EAE3F0E08A818B
:10111000808312C0E7E3F0E08A8180830DC0E4E3BE
:10112000F0E08A81808308C0E1E3F0E08A81808377
:1011300003C091E09B8301C01B828B810F900F90B5
:101140000F900F900F90CF91DF910895DF93CF9381
:1011500000D000D00F92CDB7DEB789836A83898132
:10116000282F30E03D832C838C819D818130910537
:10117000D1F02C813D81223031052CF48C819D8170
:10118000009761F01FC02C813D812230310581F034
:101190008C819D818330910581F014C0EBE3F0E0F8
:1011A0008A81808312C0E8E3F0E08A8180830DC0E9
:1011B000E5E3F0E08A81808308C0E2E3F0E08A8121
:1011C000808303C091E09B8301C01B828B810F90C1
:1011D0000F900F900F900F90CF91DF910895DF93B4
:1011E000CF9300D000D000D0CDB7DEB789837B830A
:1011F0006A838A819B81009709F440C08981282FE6
:1012000030E03E832D838D819E8181309105E1F018
:101210002D813E81223031052CF48D819E810097F5
:1012200061F027C02D813E8122303105A1F08D81F2
:101230009E8183309105B1F01CC0E9E3F0E080812C
:10124000EA81FB81808318C0E6E3F0E08081EA81D7
:10125000FB81808311C0E3E3F0E08081EA81FB81C0
:1012600080830AC0E0E3F0E08081EA81FB81808333
:1012700003C091E09C8304C01C8202C025E02C8343
:101280008C8126960FB6F894DEBF0FBECDBFCF91EE
:10129000DF910895DF93CF9300D000D000D0CDB779
:1012A000DEB78A836B838B81883008F06CC019822B
:1012B0008A81282F30E03D832C834C815D81413031
:1012C000510541F18C819D818230910534F42C814E
:1012D0003D812115310561F052C04C815D81423064
:1012E000510551F18C819D8183309105B9F147C041
:1012F000E9E3F0E08081282F30E08B81882F90E0B7
:10130000A90102C0559547958A95E2F7CA018170F7
:10131000898335C0E6E3F0E08081282F30E08B81BF
:10132000882F90E0A90102C0559547958A95E2F76C
:10133000CA018170898323C0E3E3F0E08081282F14
:1013400030E08B81882F90E0A90102C05595479528
:101350008A95E2F7CA018170898311C0E0E3F0E069
:101360008081282F30E08B81882F90E0A90102C076
:10137000559547958A95E2F7CA01817089838981DD
:101380008E838E8100C026960FB6F894DEBF0FBE06
:10139000CDBFCF91DF910895DF93CF9300D00F920F
:1013A000CDB7DEB79A838983E981FA818081E981AB
:1013B000FA819181692F40E00E94A305E981FA81B9
:1013C0008281882361F4E981FA818081E981FA814F
:1013D0009181692F41E00E94B6061B8202C081E024
:1013E0008B838B810F900F900F90CF91DF91089599
:1013F000DF93CF93CDB7DEB727970FB6F894DEBF54
:101400000FBECDBF9B838A837D836C83EA81FB8182
:101410008081EA81FB819181692F9E012F5F3F4F7F
:10142000A9010E94C9078981882361F4EC81FD81AB
:101430008081EC81FD819181692F41E00E94B60697
:101440001E8210C08981813061F4EC81FD81808130
:10145000EC81FD819181692F40E00E94B6061E82D9
:1014600001C002C08E818F838F8127960FB6F894BA
:10147000DEBF0FBECDBFCF91DF910895DF93CF9335
:1014800000D000D0CDB7DEB789837B836A83EA8141
:10149000FB8182816FEF0E945D08EA81FB8182817E
:1014A000EA81FB819381692F40E00E94B606EA81C0
:1014B000FB818081813089F4EA81FB8121818981EE
:1014C000882F90E0FC01E059FF4F9081822F692F17
:1014D0000E94A60881E08C8327C0EA81FB8180817D
:1014E000882309F5EA81FB8182816FEF0E945D0804
:1014F000EA81FB818281EA81FB819381692F40E04F
:101500000E94B606EA81FB8121818981882F90E0C3
:10151000FC01E059FF4F9081822F692F0E94A6089D
:1015200081E08C8301C01C828C810F900F900F9002
:101530000F90CF91DF910895DF93CF93CDB7DEB7B2
:1015400062970FB6F894DEBF0FBECDBF988B8F8722
:10155000698B4A8B93C0EF85F88982816FEF0E9477
:101560005D08EF85F8898281EF85F8899381692F7D
:1015700040E00E94B606EF85F88921818989882F8D
:1015800090E0FC01E059FF4F908189898F5F898B42
:10159000822F692F0E94A60880E090E0AAE7B4E4B9
:1015A0008B879C87AD87BE876B857C858D859E8567
:1015B00020E030E04AEF54E40E941F02DC01CB013E
:1015C0008F839887A987BA876F81788589859A855F
:1015D00020E030E040E85FE30E94790388232CF4A8
:1015E00081E090E09E838D833FC06F8178858985FF
:1015F0009A8520E03FEF4FE757E40E941903181641
:101600004CF56B857C858D859E8520E030E040E241
:1016100051E40E941F02DC01CB01BC01CD010E94FC
:101620004900DC01CB019E838D830FC088EC90E0E4
:101630009C838B838B819C810197F1F79C838B83A7
:101640008D819E8101979E838D838D819E810097E0
:1016500069F714C06F81788589859A850E94490051
:10166000DC01CB019E838D838D819E819A8389834A
:1016700089819A810197F1F79A83898399898A8967
:10168000891708F068CF81E062960FB6F894DEBF44
:101690000FBECDBFCF91DF910895DF93CF93CDB72C
:1016A000DEB761970FB6F894DEBF0FBECDBF998B42
:1016B000888BE889F98982816FEF0E945D08E8894B
:1016C000F9898281E889F9899381692F40E00E9434
:1016D000B6061F8683C0E889F98921818F85882F06
:1016E00090E0FC01E059FF4F9081822F692F0E940A
:1016F000A60880E090E0AAE7B4E48B879C87AD87DA
:10170000BE876B857C858D859E8520E030E04AEF25
:1017100054E40E941F02DC01CB018F839887A987C4
:10172000BA876F81788589859A8520E030E040E826
:101730005FE30E94790388232CF481E090E09E838C
:101740008D833FC06F81788589859A8520E03FEF42
:101750004FE757E40E94190318164CF56B857C85FA
:101760008D859E8520E030E040E251E40E941F021A
:10177000DC01CB01BC01CD010E944900DC01CB01A1
:101780009E838D830FC088EC90E09C838B838B813C
:101790009C810197F1F79C838B838D819E810197BA
:1017A0009E838D838D819E81009769F714C06F8120
:1017B000788589859A850E944900DC01CB019E834A
:1017C0008D838D819E819A83898389819A810197F6
:1017D000F1F79A8389838F858F5F8F878F858A3012
:1017E00008F479CF81E061960FB6F894DEBF0FBEA2
:1017F000CDBFCF91DF910895DF93CF9300D00F92AB
:10180000CDB7DEB79A838983E981FA818081E98146
:10181000FA819181692F41E00E94A305E981FA8153
:101820008281813061F4E981FA818081E981FA81E4
:101830009181692F41E00E94B6061B8213C0E981A5
:10184000FA818281823069F4E981FA818081E981BB
:10185000FA819181692F40E00E94B60681E08B8376
:1018600001C01B828B810F900F900F90CF91DF9161
:101870000895DF93CF9300D00F92CDB7DEB79A8350
:101880008983E981FA818081E981FA819181692FD7
:1018900041E00E94A305E981FA818281813061F4EF
:1018A000E981FA818081E981FA819181692F41E0A2
:1018B0000E94B6061B8213C0E981FA8182818230C0
:1018C00069F4E981FA818081E981FA819181692F46
:1018D00040E00E94B60681E08B8301C01B828B81B1
:1018E0000F900F900F90CF91DF910895DF93CF93DA
:1018F000CDB7DEB76F970FB6F894DEBF0FBECDBF82
:101900008D8F7F8F6E8FEE8DFF8D8081EE8DFF8DA1
:101910009381692F40E00E94B606EE8DFF8D818194
:10192000EE8DFF8D9481692F40E00E94B606EE8D0A
:10193000FF8D86816D8D0E94A608EE8DFF8D8281C0
:10194000EE8DFF8D9581692F41E00E94B60680E003
:1019500090E0A0E8BFE3898F9A8FAB8FBC8F698D31
:101960007A8D8B8D9C8D20E030E04AEF54E40E940C
:101970001F02DC01CB018D8B9E8BAF8BB88F6D89E5
:101980007E898F89988D20E030E040E85FE30E94F7
:10199000790388232CF481E090E09C8B8B8B3FC0F3
:1019A0006D897E898F89988D20E03FEF4FE757E45E
:1019B0000E94190318164CF5698D7A8D8B8D9C8DBC
:1019C00020E030E040E251E40E941F02DC01CB0144
:1019D000BC01CD010E944900DC01CB019C8B8B8BAB
:1019E0000FC088EC90E09A8B898B89899A8901973E
:1019F000F1F79A8B898B8B899C8901979C8B8B8BB8
:101A00008B899C89009769F714C06D897E898F89BD
:101A1000988D0E944900DC01CB019C8B8B8B8B89BC
:101A20009C89988B8F878F8598890197F1F7988B80
:101A30008F87EE8DFF8D8281EE8DFF8D9581692FD1
:101A400040E00E94B60680E090E0A0E8BFE38B870C
:101A50009C87AD87BE876B857C858D859E8520E0C4
:101A600030E04AEF54E40E941F02DC01CB018F8377
:101A70009887A987BA876F81788589859A8520E0BC
:101A800030E040E85FE30E94790388232CF481E092
:101A900090E09E838D833FC06F81788589859A858C
:101AA00020E03FEF4FE757E40E94190318164CF56A
:101AB0006B857C858D859E8520E030E040E251E499
:101AC0000E941F02DC01CB01BC01CD010E94490034
:101AD000DC01CB019E838D830FC088EC90E09C835A
:101AE0008B838B819C810197F1F79C838B838D8104
:101AF0009E8101979E838D838D819E81009769F7DA
:101B000014C06F81788589859A850E944900DC011F
:101B1000CB019E838D838D819E819A838983898168
:101B20009A810197F1F79A8389836F960FB6F8949B
:101B3000DEBF0FBECDBFCF91DF910895DF93CF936E
:101B4000CDB7DEB76F970FB6F894DEBF0FBECDBF2F
:101B50008D8F7F8F6E8FEE8DFF8D8081EE8DFF8D4F
:101B60009381692F41E00E94B606EE8DFF8D818141
:101B7000EE8DFF8D9481692F40E00E94B606EE8DB8
:101B8000FF8D86816D8D0E94A608EE8DFF8D82816E
:101B9000EE8DFF8D9581692F41E00E94B60680E0B1
:101BA00090E0A0E8BFE3898F9A8FAB8FBC8F698DDF
:101BB0007A8D8B8D9C8D20E030E04AEF54E40E94BA
:101BC0001F02DC01CB018D8B9E8BAF8BB88F6D8993
:101BD0007E898F89988D20E030E040E85FE30E94A5
:101BE000790388232CF481E090E09C8B8B8B3FC0A1
:101BF0006D897E898F89988D20E03FEF4FE757E40C
:101C00000E94190318164CF5698D7A8D8B8D9C8D69
:101C100020E030E040E251E40E941F02DC01CB01F1
:101C2000BC01CD010E944900DC01CB019C8B8B8B58
:101C30000FC088EC90E09A8B898B89899A890197EB
:101C4000F1F79A8B898B8B899C8901979C8B8B8B65
:101C50008B899C89009769F714C06D897E898F896B
:101C6000988D0E944900DC01CB019C8B8B8B8B896A
:101C70009C89988B8F878F8598890197F1F7988B2E
:101C80008F87EE8DFF8D8281EE8DFF8D9581692F7F
:101C900040E00E94B60680E090E0A0E8BFE38B87BA
:101CA0009C87AD87BE876B857C858D859E8520E072
:101CB00030E04AEF54E40E941F02DC01CB018F8325
:101CC0009887A987BA876F81788589859A8520E06A
:101CD00030E040E85FE30E94790388232CF481E040
:101CE00090E09E838D833FC06F81788589859A853A
:101CF00020E03FEF4FE757E40E94190318164CF518
:101D00006B857C858D859E8520E030E040E251E446
:101D10000E941F02DC01CB01BC01CD010E944900E1
:101D2000DC01CB019E838D830FC088EC90E09C8307
:101D30008B838B819C810197F1F79C838B838D81B1
:101D40009E8101979E838D838D819E81009769F787
:101D500014C06F81788589859A850E944900DC01CD
:101D6000CB019E838D838D819E819A838983898116
:101D70009A810197F1F79A8389836F960FB6F89449
:101D8000DEBF0FBECDBFCF91DF910895DF93CF931C
:101D9000CDB7DEB7EA970FB6F894DEBF0FBECDBF62
:101DA0009AAF89AFE9ADFAAD8081E9ADFAAD938123
:101DB000692F41E00E94A305E9ADFAAD8181E9AD4B
:101DC000FAAD9481692F41E00E94A305E9ADFAAD17
:101DD0008281E9ADFAAD9581692F41E00E94A305AA
:101DE000E9ADFAAD86816FEF0E945D0880E090E07A
:101DF000A0E2B2E48DAB9EABAFABB8AF6DA97EA94C
:101E00008FA998AD20E030E04AEF54E40E941F0211
:101E1000DC01CB0189AB9AABABABBCAB69A97AA9AE
:101E20008BA99CA920E030E040E85FE30E947903A1
:101E300088232CF481E090E098AB8FA73FC069A97C
:101E40007AA98BA99CA920E03FEF4FE757E40E94B5
:101E5000190318164CF56DA97EA98FA998AD20E03D
:101E600030E040E251E40E941F02DC01CB01BC01E2
:101E7000CD010E944900DC01CB0198AB8FA70FC0B8
:101E800088EC90E09EA78DA78DA59EA50197F1F700
:101E90009EA78DA78FA598A9019798AB8FA78FA50F
:101EA00098A9009769F714C069A97AA98BA99CA978
:101EB0000E944900DC01CB0198AB8FA78FA598A9A0
:101EC0009CA78BA78BA59CA50197F1F79CA78BA737
:101ED00029AD3AAD88E3B9010E94760C80E090E02C
:101EE000A0E8BFE38FA398A7A9A7BAA76FA178A579
:101EF00089A59AA520E030E04AEF54E40E941F0231
:101F0000DC01CB018BA39CA3ADA3BEA36BA17CA1E1
:101F10008DA19EA120E030E040E85FE30E947903BC
:101F200088232CF481E090E09AA389A33FC06BA1A1
:101F30007CA18DA19EA120E03FEF4FE757E40E94D6
:101F4000190318164CF56FA178A589A59AA520E06C
:101F500030E040E251E40E941F02DC01CB01BC01F1
:101F6000CD010E944900DC01CB019AA389A30FC0D7
:101F700088EC90E098A38F8F8F8D98A10197F1F74F
:101F800098A38F8F89A19AA101979AA389A389A168
:101F90009AA1009769F714C06BA17CA18DA19EA1A5
:101FA0000E944900DC01CB019AA389A389A19AA1CF
:101FB0009E8F8D8F8D8D9E8D0197F1F79E8F8D8FCA
:101FC00029AD3AAD8EE0B9010E94760C80E090E038
:101FD000A0E8BFE3898F9A8FAB8FBC8F698D7A8D14
:101FE0008B8D9C8D20E030E04AEF54E40E941F026C
:101FF000DC01CB018D8B9E8BAF8BB88F6D897E8979
:102000008F89988D20E030E040E85FE30E947903FB
:1020100088232CF481E090E09C8B8B8B3FC06D89F2
:102020007E898F89988D20E03FEF4FE757E40E942B
:10203000190318164CF5698D7A8D8B8D9C8D20E0D7
:1020400030E040E251E40E941F02DC01CB01BC0100
:10205000CD010E944900DC01CB019C8B8B8B0FC012
:1020600088EC90E09A8B898B89899A890197F1F79E
:102070009A8B898B8B899C8901979C8B8B8B8B8905
:102080009C89009769F714C06D897E898F89988D26
:102090000E944900DC01CB019C8B8B8B8B899C8936
:1020A000988B8F878F8598890197F1F7988B8F8709
:1020B00029AD3AAD81E0B9010E94760C80E090E054
:1020C000A0E0B0E48B879C87AD87BE876B857C855D
:1020D0008D859E8520E030E04AEF54E40E941F0287
:1020E000DC01CB018F839887A987BA876F817885B8
:1020F00089859A8520E030E040E85FE30E9479031B
:1021000088232CF481E090E09E838D833FC06F8113
:10211000788589859A8520E03FEF4FE757E40E9454
:10212000190318164CF56B857C858D859E8520E0FE
:1021300030E040E251E40E941F02DC01CB01BC010F
:10214000CD010E944900DC01CB019E838D830FC02D
:1021500088EC90E09C838B838B819C810197F1F7C5
:102160009C838B838D819E8101979E838D838D813E
:102170009E81009769F714C06F81788589859A855B
:102180000E944900DC01CB019E838D838D819E815D
:102190009A83898389819A810197F1F79A83898348
:1021A000EA960FB6F894DEBF0FBECDBFCF91DF9198
:1021B0000895DF93CF9300D000D00F92CDB7DEB754
:1021C0009B838A837D836C83198211C08981282F28
:1021D00030E08A819B81FC01E20FF31F80812C811A
:1021E0003D81B9010E949E0D89818F5F898389811C
:1021F000282F30E08A819B81FC01E20FF31F808150
:10220000882321F70F900F900F900F900F90CF9190
:10221000DF910895DF93CF9300D000D00F92CDB718
:10222000DEB79B838A836C834D8319828C818823DC
:1022300019F48D81898306C08C81813019F48D81D8
:10224000805C8983898180582A813B81B9010E9401
:10225000760C0F900F900F900F900F90CF91DF9111
:102260000895EF92FF920F931F93DF93CF93CDB713
:10227000DEB763970FB6F894DEBF0FBECDBF9F8762
:102280008E87488B598B6A8B7B8B1A861B861C86A4
:102290001D86198681E090E0A0E0B0E08D839E83EA
:1022A000AF83B88719821A821B821C828889998918
:1022B000AA89BB890097A105B10539F42E853F8510
:1022C00080E3B9010E949E0D6DC088899989AA8911
:1022D000BB89BB230CF066C02E853F858DE2B9011A
:1022E0000E949E0D88899989AA89BB89B095A0957D
:1022F000909581959F4FAF4FBF4F888B998BAA8B3D
:10230000BB8B50C08A859B85AC85BD852AE030E0BB
:1023100040E050E0BC01CD010E9460147B018C01C3
:1023200088899989AA89BB892AE030E040E050E099
:10233000BC01CD010E94A114DC01CB018E0D9F1DBB
:10234000A01FB11F8A879B87AC87BD878A859B8525
:10235000AC85BD850097A105B10591F48D819E8165
:10236000AF81B8852AE030E040E050E0BC01CD010B
:102370000E946014DC01CB018D839E83AF83B887FC
:1023800088899989AA89BB892AE030E040E050E039
:10239000BC01CD010E94A114DA01C901888B998B7F
:1023A000AA8BBB8B88899989AA89BB890097A105CB
:1023B000B10509F0A7CF49C08A859B85AC85BD854D
:1023C0002AE030E040E050E0BC01CD010E947F14E3
:1023D000DC01CB0189878985805D2E853F85B90128
:1023E0000E949E0D8A859B85AC85BD852AE030E0E4
:1023F00040E050E0BC01CD010E947F14DA01C90128
:102400008A879B87AC87BD878A859B85AC85BD8580
:102410000097A105B105C9F48D819E81AF81B88572
:102420008A309105A105B10580F081E090E0A0E03F
:10243000B0E089839A83AB83BC838D819E81AF8119
:10244000B8858A879B87AC87BD872A853B854C8565
:102450005D8589819A81AB81BC81281739074A073C
:102460005B0709F0A9CF63960FB6F894DEBF0FBEE5
:10247000CDBFCF91DF911F910F91FF90EF90089505
:10248000DF93CF93CDB7DEB781E060E041E00E94FB
:10249000A30581E061E041E00E94A30581E062E0E4
:1024A00041E00E94A30581E063E041E00E94A305B2
:1024B00081E064E040E00E94A30581E065E040E047
:1024C0000E94A30581E066E040E00E94A30581E050
:1024D00067E040E00E94A30581E06FEF0E94A6083C
:1024E000CF91DF910895DF93CF93CDB7DEB7A29759
:1024F0000FB6F894DEBF0FBECDBF8FEF8C83CE0139
:1025000005969F8F8E8FE1E8F0E0F9A3E8A3F0E154
:10251000FAA3E8A1F9A1008088A199A1019699A345
:1025200088A3EE8DFF8D00828E8D9F8D01969F8FEB
:102530008E8F9AA191509AA3EAA1EE2351F71D8A9A
:1025400081E08E8B82E08F8B83E0888F84E0898F9F
:1025500085E08A8F86E08B8F87E08C8F1B8274C02A
:102560008B81282F30E0CE014596FC01E20FF31F4E
:10257000908181E0692F40E00E94B6061A824FC028
:102580008A81282F30E0CE014996FC01E20FF31F2B
:10259000908181E0692F0E944A098983898188237B
:1025A000D9F58A81282F30E08B81482F50E0220F07
:1025B000331F220F331FCE010196820F931F840F0A
:1025C000951FFC01349680818C8314C08A81282F4A
:1025D00030E08B81482F50E0220F331F220F331F32
:1025E000CE010196820F931F840F951FFC01349634
:1025F00080818C838A81282F30E0CE014996FC01AE
:10260000E20FF31F908181E0692F0E944A0988231D
:10261000E9F2FC81FD8F1EC08A818F5F8A838A81E7
:10262000843008F4ADCF8B81282F30E0CE01459661
:10263000FC01E20FF31F908181E0692F41E00E94CD
:10264000B6068B818F5F8B838B81843008F488CFB3
:102650008C818D8F8D8DA2960FB6F894DEBF0FBE44
:10266000CDBFCF91DF910895DF93CF93CDB7DEB784
:10267000A3E5B0E0E3E5F0E0808181608C93A3E521
:10268000B0E0E3E5F0E0808180688C93A9E5B0E0FC
:10269000E9E5F0E0808181608C93AFE5B0E0EFE5A3
:1026A000F0E0808180688C938AE790E00E94C60EFB
:1026B0008AE790E060E041E00E940A1180E690E045
:1026C0002AE730E0B9010E94D910FFCF1F920F9284
:1026D0000FB60F9211242F933F934F935F936F93F5
:1026E0007F938F939F93AF93BF93EF93FF93DF936A
:1026F000CF93CDB7DEB7809192008B3308F03FC007
:10270000809192008F5F80939200809192008A3036
:10271000C8F48AE790E060E046E00E940A118AE788
:1027200090E060E047E00E940A1180919500282F18
:1027300030E040E050E08AE790E0BA01A9010E9451
:102740003111A7C0809192008B3008F4A2C0809113
:1027500092008C3308F09DC08AE790E060E046E08C
:102760000E940A1180919500282F30E040E050E04F
:102770008AE790E0BA01A9010E9431118AC08091D4
:1027800093008B3308F05DC0809192008B3309F089
:1027900058C0109292008AE790E060E046E00E9404
:1027A0000A118AE790E060E047E00E940A118091F8
:1027B0009200282F30E040E050E08AE790E0BA0134
:1027C000A9010E943111809193008F5F8093930043
:1027D000809193008A30C8F48AE790E060E046E098
:1027E0000E940A118AE790E060E047E00E940A1127
:1027F00080919500282F30E040E050E08AE790E09B
:10280000BA01A9010E94311144C0809193008B301C
:1028100008F43FC0809193008C33D8F58AE790E0AC
:1028200060E046E00E940A1180919500282F30E078
:1028300040E050E08AE790E0BA01A9010E9431111E
:1028400028C080919400873190F4809193008B335D
:1028500071F4809192008B3351F410929300109296
:102860009200809194008F5F8093940012C08091B9
:102870009400873171F4809193008B3351F48091EF
:1028800092008B3331F410929400109293001092C6
:1028900092001092970010929600CF91DF91FF91D5
:1028A000EF91BF91AF919F918F917F916F915F91C8
:1028B0004F913F912F910F900FBE0F901F90189541
:1028C000629FD001739FF001829FE00DF11D649F14
:1028D000E00DF11D929FF00D839FF00D749FF00DA0
:1028E000659FF00D9927729FB00DE11DF91F639F41
:1028F000B00DE11DF91FBD01CF0111240895A1E222
:102900001A2EAA1BBB1BFD010DC0AA1FBB1FEE1F69
:10291000FF1FA217B307E407F50720F0A21BB30BB4
:10292000E40BF50B661F771F881F991F1A9469F730
:1029300060957095809590959B01AC01BD01CF018C
:10294000089597FB092E05260ED057FD04D0D7DF3A
:102950000AD0001C38F450954095309521953F4F92
:102960004F4F5F4F0895F6F790958095709561955C
:102970007F4F8F4F9F4F08952F923F924F925F92BC
:102980006F927F928F929F92AF92BF92CF92DF927F
:10299000EF92FF920F931F93CF93DF93CDB7DEB7E4
:1029A000CA1BDB0B0FB6F894DEBF0FBECDBF099478
:1029B0002A88398848885F846E847D848C849B84CF
:1029C000AA84B984C884DF80EE80FD800C811B81DD
:1029D000AA81B981CE0FD11D0FB6F894DEBF0FBE0C
:0A29E000CDBFED010895F894FFCF7C
:1029EA0077656C636F6D65000000000000000000F1
:1029FA003F065B4F666D7D077F6F00000002010096
:102A0A00023132332034353620373839454C30528A
:022A1A00530067
:00000001FF
